{
  "transactions": [
    {
      "hash": "0xc687917bd0d87def735c6951b392732e152fc0fd0ff57452baa9ffa2afceeba0",
      "transactionType": "CALL",
      "contractName": null,
      "contractAddress": "0x2d7244c96fa380c1559c79b3b976b07ae25b1684",
      "function": "createProject(string,string,string,string[],uint256,uint256,string)",
      "arguments": [
        "Build DeFi Protocol",
        "Create a decentralized lending protocol with smart contracts",
        "Blockchain Development",
        "[Solidity, Smart Contracts]",
        "10",
        "1753543327",
        "ipfs://project-scope-hash"
      ],
      "transaction": {
        "from": "0xdd326a170d4218a68f0db7c602a94c78e6671f2f",
        "to": "0x2d7244c96fa380c1559c79b3b976b07ae25b1684",
        "gas": "0x3e4b14",
        "value": "0x0",
        "input": "0x58d5c48500000000000000000000000000000000000000000000000000000000000000e00000000000000000000000000000000000000000000000000000000000000120000000000000000000000000000000000000000000000000000000000000018000000000000000000000000000000000000000000000000000000000000001c0000000000000000000000000000000000000000000000000000000000000000a000000000000000000000000000000000000000000000000000000006884f29f00000000000000000000000000000000000000000000000000000000000002a000000000000000000000000000000000000000000000000000000000000000134275696c6420446546692050726f746f636f6c00000000000000000000000000000000000000000000000000000000000000000000000000000000000000003c437265617465206120646563656e7472616c697a6564206c656e64696e672070726f746f636f6c207769746820736d61727420636f6e747261637473000000000000000000000000000000000000000000000000000000000000000000000016426c6f636b636861696e20446576656c6f706d656e74000000000000000000000000000000000000000000000000000000000000000000000000000000000002000000000000000000000000000000000000000000000000000000000000004000000000000000000000000000000000000000000000000000000000000000800000000000000000000000000000000000000000000000000000000000000008536f6c6964697479000000000000000000000000000000000000000000000000000000000000000000000000000000000000000000000000000000000000000f536d61727420436f6e74726163747300000000000000000000000000000000000000000000000000000000000000000000000000000000000000000000000019697066733a2f2f70726f6a6563742d73636f70652d6861736800000000000000",
        "nonce": "0x5d",
        "chainId": "0x2105"
      },
      "additionalContracts": [
        {
          "transactionType": "CREATE",
          "address": "0x66d89cbd30b8dca7097352970c2a7b18b1f9db98",
          "initCode": "0x6101006040523461092857613ba48038038061001a81610959565b9283398101610160828203126109285781516001600160a01b03811692908390036109285761004b6020820161097e565b916100586040830161097e565b926100656060840161097e565b60808401516001600160401b0381116109285783610084918601610992565b60a08501519095906001600160401b03811161092857846100a6918701610992565b60c08601516001600160401b03811161092857856100c5918801610992565b60e08701519094906001600160401b0381116109285787019286601f85011215610928578351936001600160401b038511610567578460051b9060208061010d818501610959565b809881520192820101918983116109285760208201905b83821061092c5750505050610100880151976101208101519761014082015160018060401b0381116109285761015a9201610992565b9460015f5542881115610919576001600160a01b031691821561090a5760808b905260a05260c05260e0908152600280546001600160a81b0319168a17905542600d55604051929083016001600160401b0381118482101761056757604052878352602083019182526040830185815260608401918252608084019288845260c060a086019589875201958652895160018060401b038111610567576102016003546109e3565b601f81116108bc575b506020601f8211600114610856579080610238925f9161084b575b508160011b915f199060031b1c19161790565b6003555b518051906001600160401b038211610567576102596004546109e3565b601f81116107fd575b50602090601f83116001146107985761029292915f9183610486575b50508160011b915f199060031b1c19161790565b6004555b518051906001600160401b038211610567576102b36005546109e3565b601f8111610767575b50602090601f8311600114610702576102eb92915f91836104865750508160011b915f199060031b1c19161790565b6005555b518051906801000000000000000082116105675760065482600655808310610680575b5060065f9081525f516020613b845f395f51905f5292916020015b82821061057b5750509151600755505051600855518051906001600160401b0382116105675761035e6009546109e3565b601f811161050e575b50602090601f831160011461049157926103af835f516020613b645f395f51905f529896946103d5946103c799975f926104865750508160011b915f199060031b1c19161790565b6009555b604051958695608087526080870190610a31565b908582036020870152610a31565b91604084015260608301520390a260405161310e9081610a56823960805181818161030301528181610a1b01528181610e5d015281816110f4015281816112850152818161144901528181611a4e01528181611cdf01528181611f33015281816123790152818161263e015281816127ec0152612948015260a051816113c2015260c05181818161097301526115e6015260e05181818161151901528181611ae2015281816122aa01526128ca0152f35b015190505f8061027e565b90601f1983169160095f52815f20925f5b8181106104f65750936103d5936103c7989693600193835f516020613b645f395f51905f529c9a98106104de575b505050811b016009556103b3565b01515f1960f88460031b161c191690555f80806104d0565b929360206001819287860151815501950193016104a2565b60095f52610557907f6e1540171b6c0c960b71a7020d9f60077f6af931a8bbf590da0223dacf75c7af601f850160051c8101916020861061055d575b601f0160051c0190610a1b565b5f610367565b909150819061054a565b634e487b7160e01b5f52604160045260245ffd5b80518051906001600160401b0382116105675761059886546109e3565b601f8111610650575b50602090601f83116001146105e757926105d8836001959460209487965f926104865750508160011b915f199060031b1c19161790565b87555b0194019101909261032d565b90601f19831691875f52815f20925f5b8181106106385750936020936001969387969383889510610620575b505050811b0187556105db565b01515f1960f88460031b161c191690555f8080610613565b929360206001819287860151815501950193016105f7565b61067a90875f5260205f20601f850160051c8101916020861061055d57601f0160051c0190610a1b565b5f6105a1565b60065f525f516020613b845f395f51905f529081019083015b8181106106a65750610312565b806106b3600192546109e3565b806106c0575b5001610699565b601f811183146106d557505f81555b5f6106b9565b6106f190825f5283601f60205f20920160051c82019101610a1b565b805f525f60208120818355556106cf565b90601f1983169160055f52815f20925f5b81811061074f5750908460019594939210610737575b505050811b016005556102ef565b01515f1960f88460031b161c191690555f8080610729565b92936020600181928786015181550195019301610713565b6107929060055f5260205f20601f850160051c8101916020861061055d57601f0160051c0190610a1b565b5f6102bc565b90601f1983169160045f52815f20925f5b8181106107e557509084600195949392106107cd575b505050811b01600455610296565b01515f1960f88460031b161c191690555f80806107bf565b929360206001819287860151815501950193016107a9565b60045f52610845907f8a35acfbc15ff81a39ae7d344fd709f28e8600b4aa8c65c6b64bfe7fe36bd19b601f850160051c8101916020861061055d57601f0160051c0190610a1b565b5f610262565b90508c01515f610225565b601f1982169060035f52805f20918d5f905b8282106108a3575050908360019493921061088b575b5050811b0160035561023c565b8d01515f1960f88460031b161c191690555f8061087e565b600184956020939584930151815501940192018e610868565b60035f52610904907fc2575a0e9e593c00f959f8c92f12db2869c3395a3b0502d05e2516446f71f85b601f840160051c8101916020851061055d57601f0160051c0190610a1b565b5f61020a565b63d92e233d60e01b5f5260045ffd5b631da7447960e21b5f5260045ffd5b5f80fd5b81516001600160401b0381116109285760209161094e8d848094880101610992565b815201910190610124565b6040519190601f01601f191682016001600160401b0381118382101761056757604052565b51906001600160a01b038216820361092857565b81601f82011215610928578051906001600160401b038211610567576109c1601f8301601f1916602001610959565b928284526020838301011161092857815f9260208093018386015e8301015290565b90600182811c92168015610a11575b60208310146109fd57565b634e487b7160e01b5f52602260045260245ffd5b91607f16916109f2565b818110610a26575050565b5f8155600101610a1b565b805180835260209291819084018484015e5f828201840152601f01601f191601019056fe6080806040526004361015610012575f80fd5b5f905f3560e01c90816302d05d3f146129365750806309413a51146128f957806311eac855146128b5578063152052b01461279d5780631abfdaa9146127465780631adff0ee146126245780631af9fd17146124405780632442e1cb146123c357806334b25ee2146121c357806336574871146120f857806338771242146120db578063455772d2146120135780635aef573c14611f235780635c43dd9914611e3d5780636942868d14611caf578063705d43f414611c6f57806373a482e914611a30578063748807ab14611a065780637e4647fb146119af57806383bb7030146118a2578063844d8617146113f157806387bc1425146113ac5780638c468cd41461132b578063909472c01461126957806392f2f0391461122857806395cac9b8146111955780639df3359814611167578063a37dda2c1461113e578063aca5832a146110ce578063adcd1dbd14610fe4578063b17e168a14610f29578063b347037d14610e41578063c3c31056146109d9578063c4192d95146109a2578063c45a01551461095d578063ccd668631461091e578063cf09e0d014610900578063d6b4fb4914610833578063da8accf9146105fe578063e3b8fd59146105ac578063e7aa3afc146104c9578063e89e4ed614610431578063f21f537d14610413578063fc5be1ca146102e7578063fe25e00a146102be578063fe78af5e146102665763fefd7a8314610223575f80fd5b34610263576020366003190112610263576020906001600160a01b03610247612977565b16815260158252604060018060a01b0391205416604051908152f35b80fd5b5034610263576040366003190112610263576040610282612977565b9161028b61298d565b9260018060a01b031681526012602052209060018060a01b03165f52602052602060ff60405f2054166040519015158152f35b50346102635780600319360112610263576002546040516001600160a01b039091168152602090f35b503461026357602036600319011261026357610301612977565b7f00000000000000000000000000000000000000000000000000000000000000006001600160a01b03169033829003610405576001600160a01b03169081156103f6578082146103e757808352601060205260408320825f5260205260405f20600160ff19825416179055818352601360205260408320816bffffffffffffffffffffffff60a01b8254161790557fa6d1743dd9f8e89bf1b8207b90c6d4bcb6dad8d3508d9a0a60250133474a899d604051806103e1428260408082526007908201526621b932b0ba37b960c91b60608201529190602060808401930152565b0390a380f35b6301e0cb0360e01b8352600483fd5b63d92e233d60e01b8352600483fd5b6282b42960e81b8352600483fd5b50346102635780600319360112610263576020600e54604051908152f35b50346102635760203660031901126102635760043590600a54821015610263576104a261045d83612e9d565b5061046781612dff565b906104bf600182015460ff600284015416926104b2600461048a60038401612dff565b9201549460405197889760a0895260a08901906129a3565b93602088015260408701906129c7565b84820360608601526129a3565b9060808301520390f35b503461026357806003193601126102635760ff60025460a01c1660018060a01b0360015416600a546007549084908593865b82811061052f575060c096506105146040518097612b17565b602086015260408501526060840152608083015260a0820152f35b60ff600261053c83612e9d565b50015416600581101561059857600314610559575b6001016104fb565b94925f1981146105845760010192600161057287612e9d565b50015481018091116105845794610551565b634e487b7160e01b88526011600452602488fd5b634e487b7160e01b89526021600452602489fd5b50346102635760203660031901126102635760406105c8612977565b9160018060a01b036002541681526012602052209060018060a01b03165f52602052602060ff60405f2054166040519015158152f35b50346102635761060d36612ae5565b6001549091906001600160a01b0316801561082557803314159081610802575b506104055760ff60025460a01c1660048110156107ee576001036107df5760ff600261065883612e9d565b5001541660058110156107ee576001036107df57600261067782612e9d565b5001805460ff19166002179055600361068f82612e9d565b500182516001600160401b0381116107cb576106ab8254612b51565b601f8111610786575b50806020601f821160011461072657869161071b575b508160011b915f199060031b1c19161790555b7f224e565e54a61151e8dfb2f9ea2219c723ee104f6a2a1083480e3677075825906103e160018060a01b036001541693604051918291429083612f9b565b90508401515f6106ca565b8387528087209150601f198316875b81811061076e57509083600194939210610756575b5050811b0190556106dd565b8601515f1960f88460031b161c191690555f8061074a565b9192602060018192868b015181550194019201610735565b82865260208620601f830160051c810191602084106107c1575b601f0160051c01905b8181106107b657506106b4565b8681556001016107a9565b90915081906107a0565b634e487b7160e01b85526041600452602485fd5b63baf3f0f760e01b8352600483fd5b634e487b7160e01b84526021600452602484fd5b845250601160209081526040808520335f908152925281205460ff16159061062d565b6282b42960e81b8452600484fd5b50346102635760203660031901126102635761084d612977565b6002546001600160a01b0316338190036104055782526012602090815260408084206001600160a01b039384165f81815291845290829020805460ff191690558085526015835281852080546001600160a01b031916905560025482518381526007938101939093526620b93134ba32b960c91b606084015242938301939093529291909116907fc27050c24a78529d01b970de7439022e76859f32041bae6df90092e1fb69912a9080608081016103e1565b50346102635780600319360112610263576020600d54604051908152f35b50346102635760203660031901126102635760209060ff906040906001600160a01b03610949612977565b168152600b84522054166040519015158152f35b50346102635780600319360112610263576040517f00000000000000000000000000000000000000000000000000000000000000006001600160a01b03168152602090f35b50346102635780600319360112610263576080600d54600e54600f5460085491604051938452602084015260408301526060820152f35b5034610263576060366003190112610263576004356001600160401b038111610e3d57610a0a903690600401612a90565b602435906044356001600160a01b037f000000000000000000000000000000000000000000000000000000000000000016338114159081610e1a575b506108255760ff60025460a01c166004811015610e0657600103610df75742811115610de85760405190610a7982612a54565b8282526020820191848352604081019286845260209360405190610a9d8683612a6f565b888252606084019182526080840192858452600a54600160401b811015610dd457806001610ace9201600a55612e9d565b959095610dc057518051906001600160401b038211610dac578190610af38854612b51565b601f8111610d5b575b5089908d601f8411600114610cf95792610cee575b50508160011b915f199060031b1c19161785555b5160018501556002840190516005811015610cda5760ff801983541691161790556003830190518051906001600160401b038211610cc657610b678354612b51565b601f8111610c83575b508690601f8311600114610c1d576004949392918b9183610c12575b50508160011b915f199060031b1c19161790555b51910155600a545f19810194908511610bfe57917f6df4a40f54ddbc024cc4e985b8fa77b24d3b18ae73fe8d9444beaed8682ff0f39391610bef936040519485946060865260608601906129a3565b9284015260408301520390a280f35b634e487b7160e01b86526011600452602486fd5b015190505f80610b8c565b838b52878b209190601f1984168c5b8a828210610c6d57505091600193918560049897969410610c55575b505050811b019055610ba0565b01515f1960f88460031b161c191690555f8080610c48565b6001859682939686015181550195019301610c2c565b838b52878b20601f840160051c810191898510610cbc575b601f0160051c01905b818110610cb15750610b70565b8b8155600101610ca4565b9091508190610c9b565b634e487b7160e01b8a52604160045260248afd5b634e487b7160e01b8a52602160045260248afd5b015190505f80610b11565b8981528b81209350601f198516905b8c828210610d45575050908460019594939210610d2d575b505050811b018555610b25565b01515f1960f88460031b161c191690555f8080610d20565b6001859682939686015181550195019301610d08565b909150878d52898d20601f840160051c8101918b8510610da2575b849392918f91601f0160051c0191905b828210610d94575050610afc565b81558493506001018e610d86565b9091508190610d76565b634e487b7160e01b8c52604160045260248cfd5b634e487b7160e01b8b5260048b905260248bfd5b634e487b7160e01b8b52604160045260248bfd5b631da7447960e21b8452600484fd5b63baf3f0f760e01b8452600484fd5b634e487b7160e01b85526021600452602485fd5b855250601060209081526040808620335f908152925281205460ff161590610a46565b5080fd5b503461026357602036600319011261026357610e5b612977565b7f00000000000000000000000000000000000000000000000000000000000000006001600160a01b03169033829003610405578183526010602090815260408085206001600160a01b03939093165f81815293835292819020805460ff19169055828552601390915280842080546001600160a01b0319169055519091907fc27050c24a78529d01b970de7439022e76859f32041bae6df90092e1fb69912a90806103e1428260408082526007908201526621b932b0ba37b960c91b60608201529190602060808401930152565b503461026357806003193601126102635760ff60025460a01c166004811015610fd057610fc157338152600b60205260ff604082205416610fb357338152600b60205260408120600160ff19825416179055610f8433612fb2565b6040514281527ffe5d7b256f632e865e568d3ac3a3d9d6650e5e7ba4902deae8ebe559ffe3fa2e60203392a280f35b62540c0360e11b8152600490fd5b63baf3f0f760e01b8152600490fd5b634e487b7160e01b82526021600452602482fd5b503461026357602036600319011261026357610ffe612977565b6002546001600160a01b03169033829003610405576001600160a01b03169081156103f6578082146103e75782526012602090815260408084205f848152908352819020805460ff19166001179055600280548486526015845282862080546001600160a01b0319166001600160a01b03928316179055905482518381526007938101939093526620b93134ba32b960c91b6060840152429383019390935291909116907fa6d1743dd9f8e89bf1b8207b90c6d4bcb6dad8d3508d9a0a60250133474a899d9080608081016103e1565b50346102635760203660031901126102635760406110ea612977565b9160018060a01b037f00000000000000000000000000000000000000000000000000000000000000001681526010602052209060018060a01b03165f52602052602060ff60405f2054166040519015158152f35b50346102635780600319360112610263576001546040516001600160a01b039091168152602090f35b503461026357602036600319011261026357602061118b611186612977565b613037565b6040519015158152f35b50346102635780600319360112610263576111f06111b1612b89565b6112246111bc612c40565b6111c4612cd5565b906007549161120c600854916111fe6111db612d6a565b94604051998a9960c08b5260c08b01906129a3565b9089820360208b01526129a3565b9087820360408901526129a3565b926060860152608085015283820360a08501526129a3565b0390f35b5034610263576020366003190112610263576020906001600160a01b0361124d612977565b16815260138252604060018060a01b0391205416604051908152f35b503461026357602036600319011261026357611283612977565b7f00000000000000000000000000000000000000000000000000000000000000006001600160a01b0316903382141580611308575b6104055760ff60025460a01c1660048110156107ee576107df576001600160a01b031680156103f6577fdc965e1a961760f87d5ec1296d17e984b9a1b746de9a39023b0c136974b971ce8380a380f35b50818352601060209081526040808520335f908152925290205460ff16156112b8565b50346102635760203660031901126102635760043590600c5482101561026357600c5482101561139857600c81527fdf6966c971051c3d54ec59162606531493a51404a002842f56009d7e5cf4a8c79091015460405160039290921b1c6001600160a01b03168152602090f35b634e487b7160e01b81526032600452602490fd5b50346102635780600319360112610263576040517f00000000000000000000000000000000000000000000000000000000000000006001600160a01b03168152602090f35b503461181b57606036600319011261181b576004356024356001600160401b03811161181b57611425903690600401612b24565b6044356001600160401b03811161181b57611444903690600401612b24565b9390917f00000000000000000000000000000000000000000000000000000000000000006001600160a01b031691338314158061187f575b61187157611488613073565b60ff60025460a01c16600481101561185d5760010361184e5760ff60026114ae83612e9d565b50015416600581101561185d5760020361184e576114cb81612e9d565b506001808201546002909201805460ff191660031790555460405163a9059cbb60e01b81526001600160a01b0391821660048201526024810183905291929190602090829060449082905f907f0000000000000000000000000000000000000000000000000000000000000000165af1801561181057611552915f9161181f575b50612f54565b807faf8c00204411d5f080de0913186cb59749c06fed4928e61473415b44facf6d8e6020604051428152a27f8cdc8dc08e54a4e57f52077ecf1b4c508758513439cae2aa325dcc85b922fca8604060018060a01b0360015416938151908152426020820152a36115c0613091565b6115cd575b856001815580f35b6002805460ff60a01b1916600160a11b17905542600f557f00000000000000000000000000000000000000000000000000000000000000006001600160a01b0316803b1561181b576040516378bfe71360e11b81526004810184905230602482015260806044820152600760848201526621b932b0ba37b960c91b60a482015260c060648201525f818061166560c48201878b613017565b038183865af18015611810576117fb575b506001548791906001600160a01b0316813b156117f7576040516378bfe71360e11b8152600481019190915230602482015260806044820152600a608482015269233932b2b630b731b2b960b11b60a482015260c0606482015290829082908183816116e660c482018e8d613017565b03925af180156117ec576117d3575b50507f701932c5c5298d25f632eecb2014f0d007900bbbab2f053b55d59395297d70079384916117586040519283926040845261174a60408501604090600781526621b932b0ba37b960c91b60208201520190565b918483036020860152613017565b0390a260018060a01b0360015416926117996040519283926040845261174a60408501604090600a815269233932b2b630b731b2b960b11b60208201520190565b0390a27f60d8df137e489b6216738e436244ca4700bd6d0c8371d3c8d9c80b54538111b96020600f54604051908152a15f808080806115c5565b816117dd91612a6f565b6117e857855f6116f5565b8580fd5b6040513d84823e3d90fd5b8280fd5b6118089197505f90612a6f565b5f955f611676565b6040513d5f823e3d90fd5b5f80fd5b611841915060203d602011611847575b6118398183612a6f565b810190612f3c565b5f61154c565b503d61182f565b63baf3f0f760e01b5f5260045ffd5b634e487b7160e01b5f52602160045260245ffd5b6282b42960e81b5f5260045ffd5b505f83815260106020908152604080832033845290915290205460ff161561147c565b3461181b57602036600319011261181b576118bb612977565b6001546001600160a01b03169033829003611871576001600160a01b03169081156119a057808214611991575f9081526011602090815260408083208484528252808320805460ff19166001908117909155805460149093529281902080546001600160a01b0319166001600160a01b03938416179055915491519116907fa6d1743dd9f8e89bf1b8207b90c6d4bcb6dad8d3508d9a0a60250133474a899d908061198c42826040808252600a9082015269233932b2b630b731b2b960b11b60608201529190602060808401930152565b0390a3005b6301e0cb0360e01b5f5260045ffd5b63d92e233d60e01b5f5260045ffd5b3461181b57604036600319011261181b576119c8612977565b6119d061298d565b9060018060a01b03165f52601160205260405f209060018060a01b03165f52602052602060ff60405f2054166040519015158152f35b3461181b575f36600319011261181b57602060ff60025460a01c16611a2e6040518092612b17565bf35b3461181b57602036600319011261181b576004356001600160a01b037f000000000000000000000000000000000000000000000000000000000000000016338114159081611c4a575b506118715760ff60025460a01c16600481101561185d5760010361184e5760ff6002611aa483612e9d565b50015416600581101561185d5761184e57611abe81612e9d565b506001810154604051636eb1769f60e11b81523360048201523060248201529091907f00000000000000000000000000000000000000000000000000000000000000006001600160a01b031690602081604481855afa908115611810575f91611c18575b50838110611c01575060205f916064604051809481936323b872dd60e01b83523360048401523060248401528860448401525af1908115611810575f91611be2575b5015611ba657600201805460ff191660011790556040519081527fad6f5443f0021bc2808ac5204f3c96a037dc9406ec9bfdf92a8e81539f04c60590602090a2005b60405162461bcd60e51b81526020600482015260146024820152731554d110c81d1c985b9cd9995c8819985a5b195960621b6044820152606490fd5b611bfb915060203d602011611847576118398183612a6f565b84611b64565b83906307c83fcf60e41b5f5260045260245260445ffd5b90506020813d602011611c42575b81611c3360209383612a6f565b8101031261181b575185611b22565b3d9150611c26565b5f90815260106020908152604080832033845290915290205460ff1615905082611a79565b3461181b57602036600319011261181b576001600160a01b03611c90612977565b165f526014602052602060018060a01b0360405f205416604051908152f35b3461181b57602036600319011261181b576004356001600160a01b0381169081900361181b576001600160a01b037f000000000000000000000000000000000000000000000000000000000000000016338114159081611e18575b506118715760ff60025460a01c16600481101561185d5761184e5780156119a057805f52600b60205260ff60405f20541615611dc8575b806bffffffffffffffffffffffff60a01b6001541617600155600160a01b60ff60a01b19600254161760025542600e55807f4a6aa8d808444d1ece9767e4610afe5b6eaa36c09ba020d9636974d0a2cd2a0a6020604051428152a27f3fe18a49967a29c7a057fd3253e5f5e80a1bcc6ab3dcf0f3b5b9a8f00ef37a7d6020604051428152a2005b805f52600b60205260405f20600160ff19825416179055611de881612fb2565b807ffe5d7b256f632e865e568d3ac3a3d9d6650e5e7ba4902deae8ebe559ffe3fa2e6020604051428152a2611d41565b5f90815260106020908152604080832033845290915290205460ff1615905082611d0a565b3461181b575f36600319011261181b57600a54611e5981612ecd565b90611e676040519283612a6f565b808252602082019081600a5f527fc65a7bb8d6351c1cf70c95a316cc6a92839c986682d98bc35f958f4883f9d2a85f915b838310611f0557848660405191829160208301906020845251809152604083019060408160051b85010192915f905b828210611ed657505050500390f35b91936001919395506020611ef58192603f198a820301865288516129d4565b9601920192018594939192611ec7565b60056020600192611f1585612ee4565b815201920192019190611e98565b3461181b57611f3136612ae5565b7f00000000000000000000000000000000000000000000000000000000000000006001600160a01b031691903383141580611ff0575b6118715760ff60025460a01c16600481101561185d5760010361184e5760ff6002611f9184612e9d565b50015416600581101561185d5760020361184e5761198c7f9d956e00a78b28b7f3b6b25c60a4729355093de02cac8715ceb237725c0f5820916002611fd585612e9d565b5001805460ff19166004179055604051918291429083612f9b565b505f83815260106020908152604080832033845290915290205460ff1615611f67565b3461181b575f36600319011261181b57604051806020600c5492838152018092600c5f527fdf6966c971051c3d54ec59162606531493a51404a002842f56009d7e5cf4a8c7905f5b8181106120bc5750505081612071910382612a6f565b604051918291602083019060208452518091526040830191905f5b81811061209a575050500390f35b82516001600160a01b031684528594506020938401939092019160010161208c565b82546001600160a01b031684526020909301926001928301920161205b565b3461181b575f36600319011261181b576020600f54604051908152f35b3461181b57602036600319011261181b57612111612977565b6001546001600160a01b031633819003611871575f9081526011602090815260408083206001600160a01b03948516808552908352818420805460ff19169055601483529281902080546001600160a01b03191690556001548151828152600a9281019290925269233932b2b630b731b2b960b11b60608301524292820192909252919216907fc27050c24a78529d01b970de7439022e76859f32041bae6df90092e1fb69912a90806080810161198c565b3461181b57604036600319011261181b5760243560043581151580830361181b576002546001600160a01b03811633811415908161239e575b506118715760a01c60ff16600481101561185d5760010361184e5760ff600261222484612e9d565b50015416600581101561185d5760040361184e57612240613073565b61224982612e9d565b5060018101546002909101805460ff191660031790559215612377576001546001600160a01b0316905b60405163a9059cbb60e01b81526001600160a01b039283166004820181905260248201869052949092602090849060449082905f907f0000000000000000000000000000000000000000000000000000000000000000165af1918215611810576123076040937f8cdc8dc08e54a4e57f52077ecf1b4c508758513439cae2aa325dcc85b922fca8955f916123585750612f54565b60025483519182524260208301526001600160a01b03169085907fd4fa2999479f884fbfc3ac21599f636fc4c812960aae4c0fae7216b3d0fc8c04908590a38151908152426020820152a360015f55005b612371915060203d602011611847576118398183612a6f565b8861154c565b7f000000000000000000000000000000000000000000000000000000000000000090612273565b5f90815260126020908152604080832033845290915290205460ff16159050856121fc565b3461181b57602036600319011261181b576004355f60806040516123e681612a54565b606081528260208201528260408201526060808201520152600a548110156124315761241d61241761122492612e9d565b50612ee4565b6040519182916020835260208301906129d4565b630f10172360e11b5f5260045ffd5b3461181b575f36600319011261181b57606060c060405161246081612a25565b82815282602082015282604082015282808201525f60808201525f60a0820152015260405161248e81612a25565b612496612b89565b81526124a0612c40565b90602081019182526124b0612cd5565b9160408201928352600654926124c584612ecd565b936124d36040519586612a6f565b80855260065f9081527ff652222313e28459528d920b65115c16c04f3efc82aaedc97be59f3f377c0d3f602087015b838310612607575050505060608301938452600754608084019081526125836008549260a08601938452612570612537612d6a565b9560c0880196875261255d6040519860208a525160e060208b01526101008a01906129a3565b9051888203601f190160408a01526129a3565b9051868203601f190160608801526129a3565b945194601f19858203016080860152855180825260208201916020808360051b8301019801925f915b8383106125da5788806112248c8b8b8b5160a08601525160c085015251601f198483030160e08501526129a3565b90919293986020806125f8600193601f198682030187528d516129a3565b9b0193019301919392906125ac565b60016020819261261685612dff565b815201920192019190612502565b3461181b575f36600319011261181b576001600160a01b037f000000000000000000000000000000000000000000000000000000000000000016338114159081612721575b506118715760ff60025460a01c16600481101561185d578015908115612716575b50156126d1576002805460ff60a01b1916600360a01b1790556040514281527f43c54d4526fb592a856f5cbb0857a1dc2e891461e3c10358b94a38155c38935090602090a1005b60405162461bcd60e51b815260206004820152601f60248201527f43616e6e6f742063616e63656c20636f6d706c657465642070726f6a656374006044820152606490fd5b60019150148161268a565b5f90815260106020908152604080832033845290915290205460ff1615905081612669565b3461181b57604036600319011261181b5761275f612977565b61276761298d565b9060018060a01b03165f52601060205260405f209060018060a01b03165f52602052602060ff60405f2054166040519015158152f35b3461181b57602036600319011261181b5760c06001600160a01b036127c0612977565b165f81815260136020908152604080832054601483528184205460158452828520546001600160a01b037f00000000000000000000000000000000000000000000000000000000000000008116875260108652848720888852909552929094205460015491841695948416949184168015159460ff9092169391909116919084612892575b5060018060a01b03600254165f52601260205260405f20905f5260205260ff60405f20541693604051958652602086015260408501521515606084015215156080830152151560a0820152f35b9093505f52601160205260405f20835f5260205260ff60405f2054169287612845565b3461181b575f36600319011261181b576040517f00000000000000000000000000000000000000000000000000000000000000006001600160a01b03168152602090f35b3461181b57602036600319011261181b576001600160a01b0361291a612977565b165f52600b602052602060ff60405f2054166040519015158152f35b3461181b575f36600319011261181b577f00000000000000000000000000000000000000000000000000000000000000006001600160a01b03168152602090f35b600435906001600160a01b038216820361181b57565b602435906001600160a01b038216820361181b57565b805180835260209291819084018484015e5f828201840152601f01601f1916010190565b90600582101561185d5752565b90608080612a1c6129ee855160a0865260a08601906129a3565b60208601516020860152612a0a604087015160408701906129c7565b606086015185820360608701526129a3565b93015191015290565b60e081019081106001600160401b03821117612a4057604052565b634e487b7160e01b5f52604160045260245ffd5b60a081019081106001600160401b03821117612a4057604052565b90601f801991011681019081106001600160401b03821117612a4057604052565b81601f8201121561181b578035906001600160401b038211612a405760405192612ac4601f8401601f191660200185612a6f565b8284526020838301011161181b57815f926020809301838601378301015290565b90604060031983011261181b5760043591602435906001600160401b03821161181b57612b1491600401612a90565b90565b90600482101561185d5752565b9181601f8401121561181b578235916001600160401b03831161181b576020838186019501011161181b57565b90600182811c92168015612b7f575b6020831014612b6b57565b634e487b7160e01b5f52602260045260245ffd5b91607f1691612b60565b604051905f8260035491612b9c83612b51565b8083529260018116908115612c215750600114612bc2575b612bc092500383612a6f565b565b5060035f90815290917fc2575a0e9e593c00f959f8c92f12db2869c3395a3b0502d05e2516446f71f85b5b818310612c05575050906020612bc092820101612bb4565b6020919350806001915483858901015201910190918492612bed565b60209250612bc094915060ff191682840152151560051b820101612bb4565b604051905f8260045491612c5383612b51565b8083529260018116908115612c215750600114612c7657612bc092500383612a6f565b5060045f90815290917f8a35acfbc15ff81a39ae7d344fd709f28e8600b4aa8c65c6b64bfe7fe36bd19b5b818310612cb9575050906020612bc092820101612bb4565b6020919350806001915483858901015201910190918492612ca1565b604051905f8260055491612ce883612b51565b8083529260018116908115612c215750600114612d0b57612bc092500383612a6f565b5060055f90815290917f036b6384b5eca791c62761152d0c79bb0604c104a5fb6f4eb0703f3154bb3db05b818310612d4e575050906020612bc092820101612bb4565b6020919350806001915483858901015201910190918492612d36565b604051905f8260095491612d7d83612b51565b8083529260018116908115612c215750600114612da057612bc092500383612a6f565b5060095f90815290917f6e1540171b6c0c960b71a7020d9f60077f6af931a8bbf590da0223dacf75c7af5b818310612de3575050906020612bc092820101612bb4565b6020919350806001915483858901015201910190918492612dcb565b9060405191825f825492612e1284612b51565b8084529360018116908115612e7b5750600114612e37575b50612bc092500383612a6f565b90505f9291925260205f20905f915b818310612e5f575050906020612bc0928201015f612e2a565b6020919350806001915483858901015201910190918492612e46565b905060209250612bc094915060ff191682840152151560051b8201015f612e2a565b600a54811015612eb957600a5f52600560205f20910201905f90565b634e487b7160e01b5f52603260045260245ffd5b6001600160401b038111612a405760051b60200190565b90604051612ef181612a54565b8092612efc81612dff565b82526001810154602083015260ff600282015416600581101561185d576080916004916040850152612f3060038201612dff565b60608501520154910152565b9081602091031261181b5751801515810361181b5790565b15612f5b57565b60405162461bcd60e51b81526020600482015260136024820152721554d110c81c185e5b595b9d0819985a5b1959606a1b6044820152606490fd5b930152565b929190612f966020916040865260408601906129a3565b600c54600160401b811015612a405760018101600c55600c54811015612eb957600c5f527fdf6966c971051c3d54ec59162606531493a51404a002842f56009d7e5cf4a8c70180546001600160a01b0319166001600160a01b03909216919091179055565b908060209392818452848401375f828201840152601f01601f1916010190565b6001546001600160a01b0316801561306d575f52601160205260405f209060018060a01b03165f5260205260ff60405f20541690565b50505f90565b60025f54146130825760025f55565b633ee5aeb560e01b5f5260045ffd5b600a5480156130d3575f5b8181106130aa575050600190565b60ff60026130b783612e9d565b50015416600581101561185d5760030361306d5760010161309c565b505f9056fea26469706673582212204824ccb80b49f2ed192f6b3c8889b356694108c6c447802522cd2d5c548a98dd64736f6c634300081c0033c7dbaff6e36fada0be9b5dcd1ac85c9724f27afcef84c6ba9a0ab1dc4d7ccc2bf652222313e28459528d920b65115c16c04f3efc82aaedc97be59f3f377c0d3f000000000000000000000000dd326a170d4218a68f0db7c602a94c78e6671f2f000000000000000000000000eaca21cbdd3c7bb88e7bab93d1e7a4dc22b07cb10000000000000000000000002d7244c96fa380c1559c79b3b976b07ae25b1684000000000000000000000000833589fcd6edb6e08f4c7c32d4f71b54bda02913000000000000000000000000000000000000000000000000000000000000016000000000000000000000000000000000000000000000000000000000000001a000000000000000000000000000000000000000000000000000000000000002000000000000000000000000000000000000000000000000000000000000000240000000000000000000000000000000000000000000000000000000000000000a000000000000000000000000000000000000000000000000000000006884f29f000000000000000000000000000000000000000000000000000000000000032000000000000000000000000000000000000000000000000000000000000000134275696c6420446546692050726f746f636f6c00000000000000000000000000000000000000000000000000000000000000000000000000000000000000003c437265617465206120646563656e7472616c697a6564206c656e64696e672070726f746f636f6c207769746820736d61727420636f6e747261637473000000000000000000000000000000000000000000000000000000000000000000000016426c6f636b636861696e20446576656c6f706d656e74000000000000000000000000000000000000000000000000000000000000000000000000000000000002000000000000000000000000000000000000000000000000000000000000004000000000000000000000000000000000000000000000000000000000000000800000000000000000000000000000000000000000000000000000000000000008536f6c6964697479000000000000000000000000000000000000000000000000000000000000000000000000000000000000000000000000000000000000000f536d61727420436f6e74726163747300000000000000000000000000000000000000000000000000000000000000000000000000000000000000000000000019697066733a2f2f70726f6a6563742d73636f70652d6861736800000000000000"
        }
      ],
      "isFixedGasLimit": false
    },
    {
      "hash": "0x31fecc3dceb1227a7bb5c624d266cec70f93817a4ced346b11bf92cfc92a5959",
      "transactionType": "CALL",
      "contractName": "CollabraChainProject",
      "contractAddress": "0x66d89cbd30b8dca7097352970c2a7b18b1f9db98",
      "function": "approveFreelancer(address)",
      "arguments": [
        "0xDD326a170d4218a68f0dB7C602A94c78e6671f2f"
      ],
      "transaction": {
        "from": "0xdd326a170d4218a68f0db7c602a94c78e6671f2f",
        "to": "0x66d89cbd30b8dca7097352970c2a7b18b1f9db98",
        "gas": "0x300de",
        "value": "0x0",
        "input": "0x6942868d000000000000000000000000dd326a170d4218a68f0db7c602a94c78e6671f2f",
        "nonce": "0x5e",
        "chainId": "0x2105"
      },
      "additionalContracts": [],
      "isFixedGasLimit": false
    },
    {
      "hash": "0x034f5f0df40f154220781f5aa63e3be5628a5585be8909b872f16f04ad467e31",
      "transactionType": "CALL",
      "contractName": "CollabraChainProject",
      "contractAddress": "0x66d89cbd30b8dca7097352970c2a7b18b1f9db98",
      "function": "addMilestone(string,uint256,uint256)",
      "arguments": [
        "Deliver MVP smart contracts",
        "10",
        "1752247327"
      ],
      "transaction": {
        "from": "0xdd326a170d4218a68f0db7c602a94c78e6671f2f",
        "to": "0x66d89cbd30b8dca7097352970c2a7b18b1f9db98",
        "gas": "0x2bbff",
        "value": "0x0",
        "input": "0xc3c310560000000000000000000000000000000000000000000000000000000000000060000000000000000000000000000000000000000000000000000000000000000a0000000000000000000000000000000000000000000000000000000068712c1f000000000000000000000000000000000000000000000000000000000000001b44656c69766572204d565020736d61727420636f6e7472616374730000000000",
        "nonce": "0x5f",
        "chainId": "0x2105"
      },
      "additionalContracts": [],
      "isFixedGasLimit": false
    },
    {
      "hash": "0x7adf89617180052fc03f5e92837e9907d73dfa2c4cf4f255d239f0a662d0ee76",
      "transactionType": "CALL",
      "contractName": null,
      "contractAddress": "0x833589fcd6edb6e08f4c7c32d4f71b54bda02913",
      "function": "approve(address,uint256)",
      "arguments": [
        "0x66d89Cbd30b8dCA7097352970c2a7b18b1f9Db98",
        "10"
      ],
      "transaction": {
        "from": "0xdd326a170d4218a68f0db7c602a94c78e6671f2f",
        "to": "0x833589fcd6edb6e08f4c7c32d4f71b54bda02913",
        "gas": "0x12afa",
        "value": "0x0",
        "input": "0x095ea7b300000000000000000000000066d89cbd30b8dca7097352970c2a7b18b1f9db98000000000000000000000000000000000000000000000000000000000000000a",
        "nonce": "0x60",
        "chainId": "0x2105"
      },
      "additionalContracts": [],
      "isFixedGasLimit": false
    },
    {
      "hash": "0x906384426f9a2cf424d789febee8405f41d525c7e3c9d4c7c20a6f97f208f692",
      "transactionType": "CALL",
      "contractName": "CollabraChainProject",
      "contractAddress": "0x66d89cbd30b8dca7097352970c2a7b18b1f9db98",
      "function": "fundMilestone(uint256)",
      "arguments": [
        "0"
      ],
      "transaction": {
        "from": "0xdd326a170d4218a68f0db7c602a94c78e6671f2f",
        "to": "0x66d89cbd30b8dca7097352970c2a7b18b1f9db98",
        "gas": "0x21414",
        "value": "0x0",
        "input": "0x73a482e90000000000000000000000000000000000000000000000000000000000000000",
        "nonce": "0x61",
        "chainId": "0x2105"
      },
      "additionalContracts": [],
      "isFixedGasLimit": false
    },
    {
      "hash": "0x6dfaa0c32d216b0611a056e151160c1c0bd5e39b4bb0b271c828c5540d3ec3a7",
      "transactionType": "CALL",
      "contractName": "CollabraChainProject",
      "contractAddress": "0x66d89cbd30b8dca7097352970c2a7b18b1f9db98",
      "function": "submitWork(uint256,string)",
      "arguments": [
        "0",
        "ipfs://work-delivery-hash"
      ],
      "transaction": {
        "from": "0xdd326a170d4218a68f0db7c602a94c78e6671f2f",
        "to": "0x66d89cbd30b8dca7097352970c2a7b18b1f9db98",
        "gas": "0x1481f",
        "value": "0x0",
        "input": "0xda8accf9000000000000000000000000000000000000000000000000000000000000000000000000000000000000000000000000000000000000000000000000000000400000000000000000000000000000000000000000000000000000000000000019697066733a2f2f776f726b2d64656c69766572792d6861736800000000000000",
        "nonce": "0x62",
        "chainId": "0x2105"
      },
      "additionalContracts": [],
      "isFixedGasLimit": false
    },
    {
      "hash": "0xf0d15ce61678e724a23b835fe5644fa082a3747fc393fbe8d8aff2b9f8044913",
      "transactionType": "CALL",
      "contractName": "CollabraChainProject",
      "contractAddress": "0x66d89cbd30b8dca7097352970c2a7b18b1f9db98",
      "function": "releasePayment(uint256,string,string)",
      "arguments": [
        "0",
        "ipfs://creator-sbt-metadata",
        "ipfs://freelancer-sbt-metadata"
      ],
      "transaction": {
        "from": "0xdd326a170d4218a68f0db7c602a94c78e6671f2f",
        "to": "0x66d89cbd30b8dca7097352970c2a7b18b1f9db98",
        "gas": "0x7753b",
        "value": "0x0",
        "input": "0x844d86170000000000000000000000000000000000000000000000000000000000000000000000000000000000000000000000000000000000000000000000000000006000000000000000000000000000000000000000000000000000000000000000a0000000000000000000000000000000000000000000000000000000000000001b697066733a2f2f63726561746f722d7362742d6d657461646174610000000000000000000000000000000000000000000000000000000000000000000000001e697066733a2f2f667265656c616e6365722d7362742d6d657461646174610000",
        "nonce": "0x63",
        "chainId": "0x2105"
      },
      "additionalContracts": [],
      "isFixedGasLimit": false
    }
  ],
  "receipts": [
    {
      "status": "0x1",
      "cumulativeGasUsed": "0x1c7eb4d",
      "logs": [
        {
          "address": "0x66d89cbd30b8dca7097352970c2a7b18b1f9db98",
          "topics": [
            "0xc7dbaff6e36fada0be9b5dcd1ac85c9724f27afcef84c6ba9a0ab1dc4d7ccc2b",
            "0x000000000000000000000000dd326a170d4218a68f0db7c602a94c78e6671f2f"
          ],
          "data": "0x000000000000000000000000000000000000000000000000000000000000008000000000000000000000000000000000000000000000000000000000000000c0000000000000000000000000000000000000000000000000000000000000000a000000000000000000000000000000000000000000000000000000006884f29f00000000000000000000000000000000000000000000000000000000000000134275696c6420446546692050726f746f636f6c000000000000000000000000000000000000000000000000000000000000000000000000000000000000000016426c6f636b636861696e20446576656c6f706d656e7400000000000000000000",
          "blockHash": "0x8d14cf7330c2544cfe802ea1f533b5d43a67987cbe405801020d0bc223ee8970",
          "blockNumber": "0x1e9846c",
          "blockTimestamp": "0x685d65bb",
          "transactionHash": "0xc687917bd0d87def735c6951b392732e152fc0fd0ff57452baa9ffa2afceeba0",
          "transactionIndex": "0x96",
          "logIndex": "0x152",
          "removed": false
        },
        {
          "address": "0x2d7244c96fa380c1559c79b3b976b07ae25b1684",
          "topics": [
            "0xdb9cf04cc690c9da3d2a94017b1e118d6472169a963210c233ac3a44e6c86906",
            "0x00000000000000000000000066d89cbd30b8dca7097352970c2a7b18b1f9db98",
            "0x000000000000000000000000dd326a170d4218a68f0db7c602a94c78e6671f2f"
          ],
          "data": "0x00000000000000000000000000000000000000000000000000000000000000a000000000000000000000000000000000000000000000000000000000000000e0000000000000000000000000000000000000000000000000000000000000000a000000000000000000000000000000000000000000000000000000006884f29f000000000000000000000000000000000000000000000000000000000000012000000000000000000000000000000000000000000000000000000000000000134275696c6420446546692050726f746f636f6c000000000000000000000000000000000000000000000000000000000000000000000000000000000000000016426c6f636b636861696e20446576656c6f706d656e74000000000000000000000000000000000000000000000000000000000000000000000000000000000019697066733a2f2f70726f6a6563742d73636f70652d6861736800000000000000",
          "blockHash": "0x8d14cf7330c2544cfe802ea1f533b5d43a67987cbe405801020d0bc223ee8970",
          "blockNumber": "0x1e9846c",
          "blockTimestamp": "0x685d65bb",
          "transactionHash": "0xc687917bd0d87def735c6951b392732e152fc0fd0ff57452baa9ffa2afceeba0",
          "transactionIndex": "0x96",
          "logIndex": "0x153",
          "removed": false
        }
      ],
      "logsBloom": "0x00000800000000000000000000000000000000000000000000000000000000000000000000000000000000000080000000000000000000000000000000000000000000000000000000050000000000000800000000400002000000000000000000000000000000000000001000000000000000000000000000000000000000000000000000000000000000000000000500000000000000000000000000000000000000000000000000400000000000000000000000000000000000000000000000010000000000000000000000000000000000000100000000000040000000000040000000000000000000000000000000000000000010000080000000040000",
      "type": "0x2",
      "transactionHash": "0xc687917bd0d87def735c6951b392732e152fc0fd0ff57452baa9ffa2afceeba0",
      "transactionIndex": "0x96",
      "blockHash": "0x8d14cf7330c2544cfe802ea1f533b5d43a67987cbe405801020d0bc223ee8970",
      "blockNumber": "0x1e9846c",
      "gasUsed": "0x2d1966",
      "effectiveGasPrice": "0x25405d",
      "from": "0xdd326a170d4218a68f0db7c602a94c78e6671f2f",
      "to": "0x2d7244c96fa380c1559c79b3b976b07ae25b1684",
      "contractAddress": null,
      "l1BaseFeeScalar": "0x8dd",
      "l1BlobBaseFee": "0x1",
      "l1BlobBaseFeeScalar": "0x101c12",
      "l1Fee": "0x7456e364a",
      "l1GasPrice": "0xc14e0d83",
      "l1GasUsed": "0x1093"
    },
    {
      "status": "0x1",
      "cumulativeGasUsed": "0x1ca17f3",
      "logs": [
        {
          "address": "0x66d89cbd30b8dca7097352970c2a7b18b1f9db98",
          "topics": [
            "0xfe5d7b256f632e865e568d3ac3a3d9d6650e5e7ba4902deae8ebe559ffe3fa2e",
            "0x000000000000000000000000dd326a170d4218a68f0db7c602a94c78e6671f2f"
          ],
          "data": "0x00000000000000000000000000000000000000000000000000000000685d65bb",
          "blockHash": "0x8d14cf7330c2544cfe802ea1f533b5d43a67987cbe405801020d0bc223ee8970",
          "blockNumber": "0x1e9846c",
          "blockTimestamp": "0x685d65bb",
          "transactionHash": "0x31fecc3dceb1227a7bb5c624d266cec70f93817a4ced346b11bf92cfc92a5959",
          "transactionIndex": "0x97",
          "logIndex": "0x154",
          "removed": false
        },
        {
          "address": "0x66d89cbd30b8dca7097352970c2a7b18b1f9db98",
          "topics": [
            "0x4a6aa8d808444d1ece9767e4610afe5b6eaa36c09ba020d9636974d0a2cd2a0a",
            "0x000000000000000000000000dd326a170d4218a68f0db7c602a94c78e6671f2f"
          ],
          "data": "0x00000000000000000000000000000000000000000000000000000000685d65bb",
          "blockHash": "0x8d14cf7330c2544cfe802ea1f533b5d43a67987cbe405801020d0bc223ee8970",
          "blockNumber": "0x1e9846c",
          "blockTimestamp": "0x685d65bb",
          "transactionHash": "0x31fecc3dceb1227a7bb5c624d266cec70f93817a4ced346b11bf92cfc92a5959",
          "transactionIndex": "0x97",
          "logIndex": "0x155",
          "removed": false
        },
        {
          "address": "0x66d89cbd30b8dca7097352970c2a7b18b1f9db98",
          "topics": [
            "0x3fe18a49967a29c7a057fd3253e5f5e80a1bcc6ab3dcf0f3b5b9a8f00ef37a7d",
            "0x000000000000000000000000dd326a170d4218a68f0db7c602a94c78e6671f2f"
          ],
          "data": "0x00000000000000000000000000000000000000000000000000000000685d65bb",
          "blockHash": "0x8d14cf7330c2544cfe802ea1f533b5d43a67987cbe405801020d0bc223ee8970",
          "blockNumber": "0x1e9846c",
          "blockTimestamp": "0x685d65bb",
          "transactionHash": "0x31fecc3dceb1227a7bb5c624d266cec70f93817a4ced346b11bf92cfc92a5959",
          "transactionIndex": "0x97",
          "logIndex": "0x156",
          "removed": false
        }
      ],
      "logsBloom": "0x00000000000000000000000000000000000000000400000000000000000000000000000000000000000000000000000000000000000004000000000000000000000000000000000000000000000000000800400000400002000000000000000000000000000000000000000000000000000000000000000002000000001000000000000000000000000000000000000000000000000000000000000000000000000000000000000800000000000000000000000000000000000000000000000000000000000000000000000000000008000000000100000000000000000000000040000000000000000000000000000000000000020000000080080000000000",
      "type": "0x2",
      "transactionHash": "0x31fecc3dceb1227a7bb5c624d266cec70f93817a4ced346b11bf92cfc92a5959",
      "transactionIndex": "0x97",
      "blockHash": "0x8d14cf7330c2544cfe802ea1f533b5d43a67987cbe405801020d0bc223ee8970",
      "blockNumber": "0x1e9846c",
      "gasUsed": "0x22ca6",
      "effectiveGasPrice": "0x25405d",
      "from": "0xdd326a170d4218a68f0db7c602a94c78e6671f2f",
      "to": "0x66d89cbd30b8dca7097352970c2a7b18b1f9db98",
      "contractAddress": null,
      "l1BaseFeeScalar": "0x8dd",
      "l1BlobBaseFee": "0x1",
      "l1BlobBaseFeeScalar": "0x101c12",
      "l1Fee": "0x2bdc62ae9",
      "l1GasPrice": "0xc14e0d83",
      "l1GasUsed": "0x640"
    },
    {
      "status": "0x1",
      "cumulativeGasUsed": "0x1cbf695",
      "logs": [
        {
          "address": "0x66d89cbd30b8dca7097352970c2a7b18b1f9db98",
          "topics": [
            "0x6df4a40f54ddbc024cc4e985b8fa77b24d3b18ae73fe8d9444beaed8682ff0f3",
            "0x0000000000000000000000000000000000000000000000000000000000000000"
          ],
          "data": "0x0000000000000000000000000000000000000000000000000000000000000060000000000000000000000000000000000000000000000000000000000000000a0000000000000000000000000000000000000000000000000000000068712c1f000000000000000000000000000000000000000000000000000000000000001b44656c69766572204d565020736d61727420636f6e7472616374730000000000",
          "blockHash": "0x8d14cf7330c2544cfe802ea1f533b5d43a67987cbe405801020d0bc223ee8970",
          "blockNumber": "0x1e9846c",
          "blockTimestamp": "0x685d65bb",
          "transactionHash": "0x034f5f0df40f154220781f5aa63e3be5628a5585be8909b872f16f04ad467e31",
          "transactionIndex": "0x98",
          "logIndex": "0x157",
          "removed": false
        }
      ],
      "logsBloom": "0x00000000000000000000000000000000000000000000000000000000000000000000000000000000000000000000000000000000000000000000000000000010000000000000000000000000000000000000000000000002000000000000000000000000020008000000000000000800000000000000000000000000000000000000000000000000000000000000000000000000000000000000000000000000000000000000000000000000000000000000000000000000000000000000000000002000000000000000000000000000000000000100000000000000000020000040000000000000000000000000000000000000000000000000000000000000",
      "type": "0x2",
      "transactionHash": "0x034f5f0df40f154220781f5aa63e3be5628a5585be8909b872f16f04ad467e31",
      "transactionIndex": "0x98",
      "blockHash": "0x8d14cf7330c2544cfe802ea1f533b5d43a67987cbe405801020d0bc223ee8970",
      "blockNumber": "0x1e9846c",
      "gasUsed": "0x1dea2",
      "effectiveGasPrice": "0x25405d",
      "from": "0xdd326a170d4218a68f0db7c602a94c78e6671f2f",
      "to": "0x66d89cbd30b8dca7097352970c2a7b18b1f9db98",
      "contractAddress": null,
      "l1BaseFeeScalar": "0x8dd",
      "l1BlobBaseFee": "0x1",
      "l1BlobBaseFeeScalar": "0x101c12",
      "l1Fee": "0x2ea10dc5a",
      "l1GasPrice": "0xc14e0d83",
      "l1GasUsed": "0x6a4"
    },
    {
      "status": "0x1",
      "cumulativeGasUsed": "0x1cccf0a",
      "logs": [
        {
          "address": "0x833589fcd6edb6e08f4c7c32d4f71b54bda02913",
          "topics": [
            "0x8c5be1e5ebec7d5bd14f71427d1e84f3dd0314c0f7b2291e5b200ac8c7c3b925",
            "0x000000000000000000000000dd326a170d4218a68f0db7c602a94c78e6671f2f",
            "0x00000000000000000000000066d89cbd30b8dca7097352970c2a7b18b1f9db98"
          ],
          "data": "0x000000000000000000000000000000000000000000000000000000000000000a",
          "blockHash": "0x8d14cf7330c2544cfe802ea1f533b5d43a67987cbe405801020d0bc223ee8970",
          "blockNumber": "0x1e9846c",
          "blockTimestamp": "0x685d65bb",
          "transactionHash": "0x7adf89617180052fc03f5e92837e9907d73dfa2c4cf4f255d239f0a662d0ee76",
          "transactionIndex": "0x99",
          "logIndex": "0x158",
          "removed": false
        }
      ],
      "logsBloom": "0x00000800000000000000000000000000000000000000000000000000000000000000000000000000000000000000100000000000000000000000000000200000000000000000000000000000000000000800000000480000000000000000000000800000000000000000000000000000000000000000000000000000000000000000000000000000000000000000000100000000000000000000000000000000020000000000000000000000000000000000000000000000000000000000000000000000000000000000000000000000000000000000000000000000000000000010000000000000000000000000000000000000000010000080000000000000",
      "type": "0x2",
      "transactionHash": "0x7adf89617180052fc03f5e92837e9907d73dfa2c4cf4f255d239f0a662d0ee76",
      "transactionIndex": "0x99",
      "blockHash": "0x8d14cf7330c2544cfe802ea1f533b5d43a67987cbe405801020d0bc223ee8970",
      "blockNumber": "0x1e9846c",
      "gasUsed": "0xd875",
      "effectiveGasPrice": "0x25405d",
      "from": "0xdd326a170d4218a68f0db7c602a94c78e6671f2f",
      "to": "0x833589fcd6edb6e08f4c7c32d4f71b54bda02913",
      "contractAddress": null,
      "l1BaseFeeScalar": "0x8dd",
      "l1BlobBaseFee": "0x1",
      "l1BlobBaseFeeScalar": "0x101c12",
      "l1Fee": "0x2bdc62ae9",
      "l1GasPrice": "0xc14e0d83",
      "l1GasUsed": "0x640"
    },
    {
      "status": "0x1",
      "cumulativeGasUsed": "0x1ce5042",
      "logs": [
        {
          "address": "0x833589fcd6edb6e08f4c7c32d4f71b54bda02913",
          "topics": [
            "0xddf252ad1be2c89b69c2b068fc378daa952ba7f163c4a11628f55a4df523b3ef",
            "0x000000000000000000000000dd326a170d4218a68f0db7c602a94c78e6671f2f",
            "0x00000000000000000000000066d89cbd30b8dca7097352970c2a7b18b1f9db98"
          ],
          "data": "0x000000000000000000000000000000000000000000000000000000000000000a",
          "blockHash": "0x8d14cf7330c2544cfe802ea1f533b5d43a67987cbe405801020d0bc223ee8970",
          "blockNumber": "0x1e9846c",
          "blockTimestamp": "0x685d65bb",
          "transactionHash": "0x906384426f9a2cf424d789febee8405f41d525c7e3c9d4c7c20a6f97f208f692",
          "transactionIndex": "0x9a",
          "logIndex": "0x159",
          "removed": false
        },
        {
          "address": "0x66d89cbd30b8dca7097352970c2a7b18b1f9db98",
          "topics": [
            "0xad6f5443f0021bc2808ac5204f3c96a037dc9406ec9bfdf92a8e81539f04c605",
            "0x0000000000000000000000000000000000000000000000000000000000000000"
          ],
          "data": "0x000000000000000000000000000000000000000000000000000000000000000a",
          "blockHash": "0x8d14cf7330c2544cfe802ea1f533b5d43a67987cbe405801020d0bc223ee8970",
          "blockNumber": "0x1e9846c",
          "blockTimestamp": "0x685d65bb",
          "transactionHash": "0x906384426f9a2cf424d789febee8405f41d525c7e3c9d4c7c20a6f97f208f692",
          "transactionIndex": "0x9a",
          "logIndex": "0x15a",
          "removed": false
        }
      ],
      "logsBloom": "0x00000800000000000000000000000000000000000000000000000000000000000000000000000000000000000002100000000000000000000000000000000000000000000000000000200008000000000800000000480002000000000000000200800000020000000000000000000800000000000000000000000010000000000000000000000000000000000000000100000000000000000000000000000000000000000000000000000000000000000000000000000000000000000000000000000002000000000000000000000000000000000100000000000000000020000040000000000000000000000000000000000000000010000080000000000000",
      "type": "0x2",
      "transactionHash": "0x906384426f9a2cf424d789febee8405f41d525c7e3c9d4c7c20a6f97f208f692",
      "transactionIndex": "0x9a",
      "blockHash": "0x8d14cf7330c2544cfe802ea1f533b5d43a67987cbe405801020d0bc223ee8970",
      "blockNumber": "0x1e9846c",
      "gasUsed": "0x18138",
      "effectiveGasPrice": "0x25405d",
      "from": "0xdd326a170d4218a68f0db7c602a94c78e6671f2f",
      "to": "0x66d89cbd30b8dca7097352970c2a7b18b1f9db98",
      "contractAddress": null,
      "l1BaseFeeScalar": "0x8dd",
      "l1BlobBaseFee": "0x1",
      "l1BlobBaseFeeScalar": "0x101c12",
      "l1Fee": "0x2bdc62ae9",
      "l1GasPrice": "0xc14e0d83",
      "l1GasUsed": "0x640"
    },
    {
      "status": "0x1",
      "cumulativeGasUsed": "0x1cf3dd1",
      "logs": [
        {
          "address": "0x66d89cbd30b8dca7097352970c2a7b18b1f9db98",
          "topics": [
            "0x224e565e54a61151e8dfb2f9ea2219c723ee104f6a2a1083480e367707582590",
            "0x0000000000000000000000000000000000000000000000000000000000000000",
            "0x000000000000000000000000dd326a170d4218a68f0db7c602a94c78e6671f2f"
          ],
          "data": "0x000000000000000000000000000000000000000000000000000000000000004000000000000000000000000000000000000000000000000000000000685d65bb0000000000000000000000000000000000000000000000000000000000000019697066733a2f2f776f726b2d64656c69766572792d6861736800000000000000",
          "blockHash": "0x8d14cf7330c2544cfe802ea1f533b5d43a67987cbe405801020d0bc223ee8970",
          "blockNumber": "0x1e9846c",
          "blockTimestamp": "0x685d65bb",
          "transactionHash": "0x6dfaa0c32d216b0611a056e151160c1c0bd5e39b4bb0b271c828c5540d3ec3a7",
          "transactionIndex": "0x9b",
          "logIndex": "0x15b",
          "removed": false
        }
      ],
      "logsBloom": "0x00000000000000000000000000000000000000000000000000000000000000000000000000000000000000000000000000000000000000000000000000000000000000000000000100000000000000000800000000400002000000000000000000000000020000000000000000000800000000000000000000000000000000000000000000000000000000000000000000080000000000000000000000000000000000000000000000000000000000000000000000000000000000000000000000000000000000000000000400000000000000000100000000000000000020000040000000000000000000000000000000000000000000000080000000000000",
      "type": "0x2",
      "transactionHash": "0x6dfaa0c32d216b0611a056e151160c1c0bd5e39b4bb0b271c828c5540d3ec3a7",
      "transactionIndex": "0x9b",
      "blockHash": "0x8d14cf7330c2544cfe802ea1f533b5d43a67987cbe405801020d0bc223ee8970",
      "blockNumber": "0x1e9846c",
      "gasUsed": "0xed8f",
      "effectiveGasPrice": "0x25405d",
      "from": "0xdd326a170d4218a68f0db7c602a94c78e6671f2f",
      "to": "0x66d89cbd30b8dca7097352970c2a7b18b1f9db98",
      "contractAddress": null,
      "l1BaseFeeScalar": "0x8dd",
      "l1BlobBaseFee": "0x1",
      "l1BlobBaseFeeScalar": "0x101c12",
      "l1Fee": "0x2bdc62ae9",
      "l1GasPrice": "0xc14e0d83",
      "l1GasUsed": "0x640"
    },
    {
      "status": "0x1",
      "cumulativeGasUsed": "0x1d4a411",
      "logs": [
        {
          "address": "0x833589fcd6edb6e08f4c7c32d4f71b54bda02913",
          "topics": [
            "0xddf252ad1be2c89b69c2b068fc378daa952ba7f163c4a11628f55a4df523b3ef",
            "0x00000000000000000000000066d89cbd30b8dca7097352970c2a7b18b1f9db98",
            "0x000000000000000000000000dd326a170d4218a68f0db7c602a94c78e6671f2f"
          ],
          "data": "0x000000000000000000000000000000000000000000000000000000000000000a",
          "blockHash": "0x8d14cf7330c2544cfe802ea1f533b5d43a67987cbe405801020d0bc223ee8970",
          "blockNumber": "0x1e9846c",
          "blockTimestamp": "0x685d65bb",
          "transactionHash": "0xf0d15ce61678e724a23b835fe5644fa082a3747fc393fbe8d8aff2b9f8044913",
          "transactionIndex": "0x9c",
          "logIndex": "0x15c",
          "removed": false
        },
        {
          "address": "0x66d89cbd30b8dca7097352970c2a7b18b1f9db98",
          "topics": [
            "0xaf8c00204411d5f080de0913186cb59749c06fed4928e61473415b44facf6d8e",
            "0x0000000000000000000000000000000000000000000000000000000000000000"
          ],
          "data": "0x00000000000000000000000000000000000000000000000000000000685d65bb",
          "blockHash": "0x8d14cf7330c2544cfe802ea1f533b5d43a67987cbe405801020d0bc223ee8970",
          "blockNumber": "0x1e9846c",
          "blockTimestamp": "0x685d65bb",
          "transactionHash": "0xf0d15ce61678e724a23b835fe5644fa082a3747fc393fbe8d8aff2b9f8044913",
          "transactionIndex": "0x9c",
          "logIndex": "0x15d",
          "removed": false
        },
        {
          "address": "0x66d89cbd30b8dca7097352970c2a7b18b1f9db98",
          "topics": [
            "0x8cdc8dc08e54a4e57f52077ecf1b4c508758513439cae2aa325dcc85b922fca8",
            "0x0000000000000000000000000000000000000000000000000000000000000000",
            "0x000000000000000000000000dd326a170d4218a68f0db7c602a94c78e6671f2f"
          ],
          "data": "0x000000000000000000000000000000000000000000000000000000000000000a00000000000000000000000000000000000000000000000000000000685d65bb",
          "blockHash": "0x8d14cf7330c2544cfe802ea1f533b5d43a67987cbe405801020d0bc223ee8970",
          "blockNumber": "0x1e9846c",
          "blockTimestamp": "0x685d65bb",
          "transactionHash": "0xf0d15ce61678e724a23b835fe5644fa082a3747fc393fbe8d8aff2b9f8044913",
          "transactionIndex": "0x9c",
          "logIndex": "0x15e",
          "removed": false
        },
        {
          "address": "0xeaca21cbdd3c7bb88e7bab93d1e7a4dc22b07cb1",
          "topics": [
            "0xddf252ad1be2c89b69c2b068fc378daa952ba7f163c4a11628f55a4df523b3ef",
            "0x0000000000000000000000000000000000000000000000000000000000000000",
            "0x000000000000000000000000dd326a170d4218a68f0db7c602a94c78e6671f2f",
            "0x0000000000000000000000000000000000000000000000000000000000000003"
          ],
          "data": "0x",
          "blockHash": "0x8d14cf7330c2544cfe802ea1f533b5d43a67987cbe405801020d0bc223ee8970",
          "blockNumber": "0x1e9846c",
          "blockTimestamp": "0x685d65bb",
          "transactionHash": "0xf0d15ce61678e724a23b835fe5644fa082a3747fc393fbe8d8aff2b9f8044913",
          "transactionIndex": "0x9c",
          "logIndex": "0x15f",
          "removed": false
        },
        {
          "address": "0xeaca21cbdd3c7bb88e7bab93d1e7a4dc22b07cb1",
          "topics": [
            "0xddf252ad1be2c89b69c2b068fc378daa952ba7f163c4a11628f55a4df523b3ef",
            "0x0000000000000000000000000000000000000000000000000000000000000000",
            "0x000000000000000000000000dd326a170d4218a68f0db7c602a94c78e6671f2f",
            "0x0000000000000000000000000000000000000000000000000000000000000004"
          ],
          "data": "0x",
          "blockHash": "0x8d14cf7330c2544cfe802ea1f533b5d43a67987cbe405801020d0bc223ee8970",
          "blockNumber": "0x1e9846c",
          "blockTimestamp": "0x685d65bb",
          "transactionHash": "0xf0d15ce61678e724a23b835fe5644fa082a3747fc393fbe8d8aff2b9f8044913",
          "transactionIndex": "0x9c",
          "logIndex": "0x160",
          "removed": false
        },
        {
          "address": "0x66d89cbd30b8dca7097352970c2a7b18b1f9db98",
          "topics": [
            "0x701932c5c5298d25f632eecb2014f0d007900bbbab2f053b55d59395297d7007",
            "0x000000000000000000000000dd326a170d4218a68f0db7c602a94c78e6671f2f"
          ],
          "data": "0x00000000000000000000000000000000000000000000000000000000000000400000000000000000000000000000000000000000000000000000000000000080000000000000000000000000000000000000000000000000000000000000000743726561746f7200000000000000000000000000000000000000000000000000000000000000000000000000000000000000000000000000000000000000001b697066733a2f2f63726561746f722d7362742d6d657461646174610000000000",
          "blockHash": "0x8d14cf7330c2544cfe802ea1f533b5d43a67987cbe405801020d0bc223ee8970",
          "blockNumber": "0x1e9846c",
          "blockTimestamp": "0x685d65bb",
          "transactionHash": "0xf0d15ce61678e724a23b835fe5644fa082a3747fc393fbe8d8aff2b9f8044913",
          "transactionIndex": "0x9c",
          "logIndex": "0x161",
          "removed": false
        },
        {
          "address": "0x66d89cbd30b8dca7097352970c2a7b18b1f9db98",
          "topics": [
            "0x701932c5c5298d25f632eecb2014f0d007900bbbab2f053b55d59395297d7007",
            "0x000000000000000000000000dd326a170d4218a68f0db7c602a94c78e6671f2f"
          ],
          "data": "0x00000000000000000000000000000000000000000000000000000000000000400000000000000000000000000000000000000000000000000000000000000080000000000000000000000000000000000000000000000000000000000000000a467265656c616e63657200000000000000000000000000000000000000000000000000000000000000000000000000000000000000000000000000000000001e697066733a2f2f667265656c616e6365722d7362742d6d657461646174610000",
          "blockHash": "0x8d14cf7330c2544cfe802ea1f533b5d43a67987cbe405801020d0bc223ee8970",
          "blockNumber": "0x1e9846c",
          "blockTimestamp": "0x685d65bb",
          "transactionHash": "0xf0d15ce61678e724a23b835fe5644fa082a3747fc393fbe8d8aff2b9f8044913",
          "transactionIndex": "0x9c",
          "logIndex": "0x162",
          "removed": false
        },
        {
          "address": "0x66d89cbd30b8dca7097352970c2a7b18b1f9db98",
          "topics": [
            "0x60d8df137e489b6216738e436244ca4700bd6d0c8371d3c8d9c80b54538111b9"
          ],
          "data": "0x00000000000000000000000000000000000000000000000000000000685d65bb",
          "blockHash": "0x8d14cf7330c2544cfe802ea1f533b5d43a67987cbe405801020d0bc223ee8970",
          "blockNumber": "0x1e9846c",
          "blockTimestamp": "0x685d65bb",
          "transactionHash": "0xf0d15ce61678e724a23b835fe5644fa082a3747fc393fbe8d8aff2b9f8044913",
          "transactionIndex": "0x9c",
          "logIndex": "0x163",
          "removed": false
        }
      ],
      "logsBloom": "0x00000800000200000000000000000000000000000000400000100100020000000010000000004000000008000000100000000000020000000000000000000000000000000000000000080008000000000800000000480002000000000000000008800000020000000400000000000800000040000000000000020014000000000000000000000000000000000000000100000000000000000000000000000000000000000000000000000000000000000000000000800000002000000000400000000002000000000000000000000000000000008100000000000000000020000040000000000200000000000000000000002000000010000080000000000000",
      "type": "0x2",
      "transactionHash": "0xf0d15ce61678e724a23b835fe5644fa082a3747fc393fbe8d8aff2b9f8044913",
      "transactionIndex": "0x9c",
      "blockHash": "0x8d14cf7330c2544cfe802ea1f533b5d43a67987cbe405801020d0bc223ee8970",
      "blockNumber": "0x1e9846c",
      "gasUsed": "0x56640",
      "effectiveGasPrice": "0x25405d",
      "from": "0xdd326a170d4218a68f0db7c602a94c78e6671f2f",
      "to": "0x66d89cbd30b8dca7097352970c2a7b18b1f9db98",
      "contractAddress": null,
      "l1BaseFeeScalar": "0x8dd",
      "l1BlobBaseFee": "0x1",
      "l1BlobBaseFeeScalar": "0x101c12",
      "l1Fee": "0x319075151",
      "l1GasPrice": "0xc14e0d83",
      "l1GasUsed": "0x710"
    }
  ],
  "libraries": [],
  "pending": [],
  "returns": {},
  "timestamp": 1750951359,
  "chain": 8453,
  "commit": "c42b4a3"
}